{
  "transactions": [
    {
      "hash": "0xd67c72a52839d5799b5e29fbbd26d889c47412db2c5dd588999443ae9c84f02b",
      "transactionType": "CALL",
      "contractName": null,
      "contractAddress": "0xe0915765ebe676359cda2a18f0ac7ea590ae9a76",
      "function": "setResource(bytes32,address,bool)",
      "arguments": [
        "0x000000000000000000000000408ddbb94c985f8fec4d3bb8d4b05d69d0620283",
        "0x21B18e8c6c8e4eB7f05Fa6A48373002AA389Feec",
        "true"
      ],
      "transaction": {
        "from": "0x4beb1413d5b15b147458242fc6e96bf8f6635f52",
        "to": "0xe0915765ebe676359cda2a18f0ac7ea590ae9a76",
        "gas": "0x18d29",
        "value": "0x0",
        "input": "0x7058c6a6000000000000000000000000408ddbb94c985f8fec4d3bb8d4b05d69d062028300000000000000000000000021b18e8c6c8e4eb7f05fa6a48373002aa389feec0000000000000000000000000000000000000000000000000000000000000001",
        "nonce": "0x4",
        "chainId": "0x66eee"
      },
      "additionalContracts": [],
      "isFixedGasLimit": false
    }
  ],
  "receipts": [
    {
      "status": "0x1",
      "cumulativeGasUsed": "0x128e3",
      "logs": [
        {
          "address": "0xe0915765ebe676359cda2a18f0ac7ea590ae9a76",
          "topics": [
            "0x21a54196c2735d158133d24018037aca61c19a1a1a316af02812224acecd9c02",
            "0x000000000000000000000000408ddbb94c985f8fec4d3bb8d4b05d69d0620283"
          ],
          "data": "0x00000000000000000000000021b18e8c6c8e4eb7f05fa6a48373002aa389feec0000000000000000000000000000000000000000000000000000000000000001",
          "blockHash": "0xfb966ce8afe36da970cee481ecff9dff2358ed8657f92dc8f86928f9c61b438d",
          "blockNumber": "0x683fa97",
          "transactionHash": "0xd67c72a52839d5799b5e29fbbd26d889c47412db2c5dd588999443ae9c84f02b",
          "transactionIndex": "0x1",
          "logIndex": "0x0",
          "removed": false
        }
      ],
      "logsBloom": "0x00000000000000000000000000000000000000000000000000000000000000000000100000000000000000000000000000000000000000020000000000000000000000000000000000000000000000000000400000400000000000000000000000000000000000000000000000000000000000000000000000000000000000000000000000000000000000000000000000000000000000000000000000001000000000000000000000000000040000000000000000000020000000000000000000000000000000000040000000000400000000000000000000000000000000000000000000000000000000000000000000000000000000000000000000000000",
      "type": "0x2",
      "transactionHash": "0xd67c72a52839d5799b5e29fbbd26d889c47412db2c5dd588999443ae9c84f02b",
      "transactionIndex": "0x1",
      "blockHash": "0xfb966ce8afe36da970cee481ecff9dff2358ed8657f92dc8f86928f9c61b438d",
      "blockNumber": "0x683fa97",
      "gasUsed": "0x128e3",
      "effectiveGasPrice": "0x5f5e100",
      "from": "0x4beb1413d5b15b147458242fc6e96bf8f6635f52",
      "to": "0xe0915765ebe676359cda2a18f0ac7ea590ae9a76",
      "contractAddress": null,
      "gasUsedForL1": "0x13b2",
      "l1BlockNumber": "0x6fc89b"
    }
  ],
  "libraries": [],
  "pending": [],
  "returns": {},
  "timestamp": 1734798060,
  "chain": 421614,
  "commit": "0172616"
}