{
  "transactions": [
    {
      "hash": "0x023382e05666d10a7a9638380e4f1b8f278395a01add2c4af116b76b122af569",
      "transactionType": "CALL",
      "contractName": null,
      "contractAddress": "0x303ae9878288cd970741c568377059b27f47735f",
      "function": "setResource(bytes32,address,bool)",
      "arguments": [
        "0x000000000000000000000000408ddbb94c985f8fec4d3bb8d4b05d69d0620283",
        "0x408DdbB94C985f8Fec4D3Bb8d4b05d69D0620283",
        "false"
      ],
      "transaction": {
        "from": "0x4beb1413d5b15b147458242fc6e96bf8f6635f52",
        "to": "0x303ae9878288cd970741c568377059b27f47735f",
        "gas": "0x123bd",
        "value": "0x0",
        "input": "0x7058c6a6000000000000000000000000408ddbb94c985f8fec4d3bb8d4b05d69d0620283000000000000000000000000408ddbb94c985f8fec4d3bb8d4b05d69d06202830000000000000000000000000000000000000000000000000000000000000000",
        "nonce": "0x42",
        "chainId": "0x14a34"
      },
      "additionalContracts": [],
      "isFixedGasLimit": false
    }
  ],
  "receipts": [
    {
      "status": "0x1",
      "cumulativeGasUsed": "0x14b686",
      "logs": [
        {
          "address": "0x303ae9878288cd970741c568377059b27f47735f",
          "topics": [
            "0x21a54196c2735d158133d24018037aca61c19a1a1a316af02812224acecd9c02",
            "0x000000000000000000000000408ddbb94c985f8fec4d3bb8d4b05d69d0620283"
          ],
          "data": "0x000000000000000000000000408ddbb94c985f8fec4d3bb8d4b05d69d06202830000000000000000000000000000000000000000000000000000000000000000",
          "blockHash": "0x8fde682cef8ae980b572ecf832eaee38d7e785e66cf9cace71f7d67e8c4de6fd",
          "blockNumber": "0x129c5d9",
          "transactionHash": "0x023382e05666d10a7a9638380e4f1b8f278395a01add2c4af116b76b122af569",
          "transactionIndex": "0xf",
          "logIndex": "0x22",
          "removed": false
        }
      ],
      "logsBloom": "0x00000000000000000000000000000000000000000000000000000000000000000000100000000000000000000000000000000000000000020000000000000000000000000000000000000000000000000000000000000010000000000000000010000000000000000000000000002000000000000000000000000000000000000000000000000000000000000000000000000000000000000000000000001000000000000000000000000000040000000000000000000020000000000000000000000000000000000000000000000400000000000000000000000000000000000000000000000000000000000000000000000000000000000000000000000000",
      "type": "0x2",
      "transactionHash": "0x023382e05666d10a7a9638380e4f1b8f278395a01add2c4af116b76b122af569",
      "transactionIndex": "0xf",
      "blockHash": "0x8fde682cef8ae980b572ecf832eaee38d7e785e66cf9cace71f7d67e8c4de6fd",
      "blockNumber": "0x129c5d9",
      "gasUsed": "0xc77b",
      "effectiveGasPrice": "0x9d006",
      "from": "0x4beb1413d5b15b147458242fc6e96bf8f6635f52",
      "to": "0x303ae9878288cd970741c568377059b27f47735f",
      "contractAddress": null,
      "l1BaseFeeScalar": "0x44d",
      "l1BlobBaseFee": "0x1",
      "l1BlobBaseFeeScalar": "0xa118b",
      "l1Fee": "0x24d629831",
      "l1GasPrice": "0x14e92e1c2",
      "l1GasUsed": "0x640"
    }
  ],
  "libraries": [],
  "pending": [],
  "returns": {},
  "timestamp": 1734797976,
  "chain": 84532,
  "commit": "0172616"
}