{
  "transactions": [
    {
      "hash": "0xca913f06624c33b6fa228c227f5527e842b7473dd7fa7bc9fed05d3698bb3de1",
      "transactionType": "CALL",
      "contractName": null,
      "contractAddress": "0x303ae9878288cd970741c568377059b27f47735f",
      "function": "setResource(bytes32,address,bool)",
      "arguments": [
        "0x000000000000000000000000408ddbb94c985f8fec4d3bb8d4b05d69d0620283",
        "0x408DdbB94C985f8Fec4D3Bb8d4b05d69D0620283",
        "false"
      ],
      "transaction": {
        "from": "0x4beb1413d5b15b147458242fc6e96bf8f6635f52",
        "to": "0x303ae9878288cd970741c568377059b27f47735f",
        "gas": "0xa828",
        "value": "0x0",
        "input": "0x7058c6a6000000000000000000000000408ddbb94c985f8fec4d3bb8d4b05d69d0620283000000000000000000000000408ddbb94c985f8fec4d3bb8d4b05d69d06202830000000000000000000000000000000000000000000000000000000000000000",
        "nonce": "0x43",
        "chainId": "0x14a34"
      },
      "additionalContracts": [],
      "isFixedGasLimit": false
    },
    {
      "hash": "0x80d60431f294c01d90fe84c6670d7924a97524add8bf1034fcad5ee34088b14a",
      "transactionType": "CALL",
      "contractName": null,
      "contractAddress": "0x303ae9878288cd970741c568377059b27f47735f",
      "function": "setDestChainId(bytes32,uint64,bool)",
      "arguments": [
        "0x000000000000000000000000408ddbb94c985f8fec4d3bb8d4b05d69d0620283",
        "421614",
        "true"
      ],
      "transaction": {
        "from": "0x4beb1413d5b15b147458242fc6e96bf8f6635f52",
        "to": "0x303ae9878288cd970741c568377059b27f47735f",
        "gas": "0x112a6",
        "value": "0x0",
        "input": "0x32bb027b000000000000000000000000408ddbb94c985f8fec4d3bb8d4b05d69d06202830000000000000000000000000000000000000000000000000000000000066eee0000000000000000000000000000000000000000000000000000000000000001",
        "nonce": "0x44",
        "chainId": "0x14a34"
      },
      "additionalContracts": [],
      "isFixedGasLimit": false
    },
    {
      "hash": "0x65e94911af6ef4be5646fa54d3ca410291f7f1fa13e1e0c5d77e08ce7b273e7c",
      "transactionType": "CALL",
      "contractName": null,
      "contractAddress": "0x408ddbb94c985f8fec4d3bb8d4b05d69d0620283",
      "function": "approve(address,uint256)",
      "arguments": [
        "0x303AE9878288cd970741C568377059B27F47735F",
        "1000000000000000000000"
      ],
      "transaction": {
        "from": "0x4beb1413d5b15b147458242fc6e96bf8f6635f52",
        "to": "0x408ddbb94c985f8fec4d3bb8d4b05d69d0620283",
        "gas": "0x10921",
        "value": "0x0",
        "input": "0x095ea7b3000000000000000000000000303ae9878288cd970741c568377059b27f47735f00000000000000000000000000000000000000000000003635c9adc5dea00000",
        "nonce": "0x45",
        "chainId": "0x14a34"
      },
      "additionalContracts": [],
      "isFixedGasLimit": false
    },
    {
      "hash": "0x376066efb85f473e64d600b6f94962b78e6ba0ae698523915e9b9b186a0f320a",
      "transactionType": "CALL",
      "contractName": null,
      "contractAddress": "0x408ddbb94c985f8fec4d3bb8d4b05d69d0620283",
      "function": "mint(address,uint256)",
      "arguments": [
        "0x4BEB1413d5B15B147458242Fc6E96bF8f6635F52",
        "1000000000000000000000"
      ],
      "transaction": {
        "from": "0x4beb1413d5b15b147458242fc6e96bf8f6635f52",
        "to": "0x408ddbb94c985f8fec4d3bb8d4b05d69d0620283",
        "gas": "0x17d76",
        "value": "0x0",
        "input": "0x40c10f190000000000000000000000004beb1413d5b15b147458242fc6e96bf8f6635f5200000000000000000000000000000000000000000000003635c9adc5dea00000",
        "nonce": "0x46",
        "chainId": "0x14a34"
      },
      "additionalContracts": [],
      "isFixedGasLimit": false
    },
    {
      "hash": "0x6c5e8dbd73d428714cd0e7feda9efaa571c04da369b2b817ee1b6c6d0b206ec6",
      "transactionType": "CALL",
      "contractName": null,
      "contractAddress": "0x303ae9878288cd970741c568377059b27f47735f",
      "function": "deposit(bytes32,uint256,uint64)",
      "arguments": [
        "0x000000000000000000000000408ddbb94c985f8fec4d3bb8d4b05d69d0620283",
        "100000000000000000000",
        "421614"
      ],
      "transaction": {
        "from": "0x4beb1413d5b15b147458242fc6e96bf8f6635f52",
        "to": "0x303ae9878288cd970741c568377059b27f47735f",
        "gas": "0x177e9",
        "value": "0x0",
        "input": "0x1255899f000000000000000000000000408ddbb94c985f8fec4d3bb8d4b05d69d06202830000000000000000000000000000000000000000000000056bc75e2d631000000000000000000000000000000000000000000000000000000000000000066eee",
        "nonce": "0x47",
        "chainId": "0x14a34"
      },
      "additionalContracts": [],
      "isFixedGasLimit": false
    }
  ],
  "receipts": [
    {
      "status": "0x1",
      "cumulativeGasUsed": "0x1a835f",
      "logs": [
        {
          "address": "0x303ae9878288cd970741c568377059b27f47735f",
          "topics": [
            "0x21a54196c2735d158133d24018037aca61c19a1a1a316af02812224acecd9c02",
            "0x000000000000000000000000408ddbb94c985f8fec4d3bb8d4b05d69d0620283"
          ],
          "data": "0x000000000000000000000000408ddbb94c985f8fec4d3bb8d4b05d69d06202830000000000000000000000000000000000000000000000000000000000000000",
          "blockHash": "0x1c4beae7b752d5fd218a97a8f0a0226207f40acb27d32b293a8d23834d6ed350",
          "blockNumber": "0x129c913",
          "transactionHash": "0xca913f06624c33b6fa228c227f5527e842b7473dd7fa7bc9fed05d3698bb3de1",
          "transactionIndex": "0x12",
          "logIndex": "0x25",
          "removed": false
        }
      ],
      "logsBloom": "0x00000000000000000000000000000000000000000000000000000000000000000000100000000000000000000000000000000000000000020000000000000000000000000000000000000000000000000000000000000010000000000000000010000000000000000000000000002000000000000000000000000000000000000000000000000000000000000000000000000000000000000000000000001000000000000000000000000000040000000000000000000020000000000000000000000000000000000000000000000400000000000000000000000000000000000000000000000000000000000000000000000000000000000000000000000000",
      "type": "0x2",
      "transactionHash": "0xca913f06624c33b6fa228c227f5527e842b7473dd7fa7bc9fed05d3698bb3de1",
      "transactionIndex": "0x12",
      "blockHash": "0x1c4beae7b752d5fd218a97a8f0a0226207f40acb27d32b293a8d23834d6ed350",
      "blockNumber": "0x129c913",
      "gasUsed": "0x79bf",
      "effectiveGasPrice": "0x18813",
      "from": "0x4beb1413d5b15b147458242fc6e96bf8f6635f52",
      "to": "0x303ae9878288cd970741c568377059b27f47735f",
      "contractAddress": null,
      "l1BaseFeeScalar": "0x44d",
      "l1BlobBaseFee": "0x1",
      "l1BlobBaseFeeScalar": "0xa118b",
      "l1Fee": "0x2d4c1cd81",
      "l1GasPrice": "0x19b6b74fa",
      "l1GasUsed": "0x640"
    },
    {
      "status": "0x1",
      "cumulativeGasUsed": "0x1b4a37",
      "logs": [
        {
          "address": "0x303ae9878288cd970741c568377059b27f47735f",
          "topics": [
            "0x7a2774dd73cc5dde7c3a5657582429f8e7b0e26be0aafa09d572b2e4b5078190",
            "0x000000000000000000000000408ddbb94c985f8fec4d3bb8d4b05d69d0620283",
            "0x0000000000000000000000000000000000000000000000000000000000066eee"
          ],
          "data": "0x0000000000000000000000000000000000000000000000000000000000000001",
          "blockHash": "0x1c4beae7b752d5fd218a97a8f0a0226207f40acb27d32b293a8d23834d6ed350",
          "blockNumber": "0x129c913",
          "transactionHash": "0x80d60431f294c01d90fe84c6670d7924a97524add8bf1034fcad5ee34088b14a",
          "transactionIndex": "0x13",
          "logIndex": "0x26",
          "removed": false
        }
      ],
      "logsBloom": "0x00000000000000000000000000000000000000000000000000000000000000000000000000000000000000000000000000000000000000020000000000000000000000000020000000000000000000000000000000000010000000000000000010000000000000000000000000002000000000000000000000000000000000000008000000000000000000000000000040000000000000000000000000001000000000000000400000000000000000000000000000000000000000000001000000000000000000000000000000000400000000000000100000000000000000000000000000000000000000000000000000000000000000000000000000000000",
      "type": "0x2",
      "transactionHash": "0x80d60431f294c01d90fe84c6670d7924a97524add8bf1034fcad5ee34088b14a",
      "transactionIndex": "0x13",
      "blockHash": "0x1c4beae7b752d5fd218a97a8f0a0226207f40acb27d32b293a8d23834d6ed350",
      "blockNumber": "0x129c913",
      "gasUsed": "0xc6d8",
      "effectiveGasPrice": "0x18813",
      "from": "0x4beb1413d5b15b147458242fc6e96bf8f6635f52",
      "to": "0x303ae9878288cd970741c568377059b27f47735f",
      "contractAddress": null,
      "l1BaseFeeScalar": "0x44d",
      "l1BlobBaseFee": "0x1",
      "l1BlobBaseFeeScalar": "0xa118b",
      "l1Fee": "0x2d4c1cd81",
      "l1GasPrice": "0x19b6b74fa",
      "l1GasUsed": "0x640"
    },
    {
      "status": "0x1",
      "cumulativeGasUsed": "0x1bff80",
      "logs": [
        {
          "address": "0x408ddbb94c985f8fec4d3bb8d4b05d69d0620283",
          "topics": [
            "0x8c5be1e5ebec7d5bd14f71427d1e84f3dd0314c0f7b2291e5b200ac8c7c3b925",
            "0x0000000000000000000000004beb1413d5b15b147458242fc6e96bf8f6635f52",
            "0x000000000000000000000000303ae9878288cd970741c568377059b27f47735f"
          ],
          "data": "0x00000000000000000000000000000000000000000000003635c9adc5dea00000",
          "blockHash": "0x1c4beae7b752d5fd218a97a8f0a0226207f40acb27d32b293a8d23834d6ed350",
          "blockNumber": "0x129c913",
          "transactionHash": "0x65e94911af6ef4be5646fa54d3ca410291f7f1fa13e1e0c5d77e08ce7b273e7c",
          "transactionIndex": "0x14",
          "logIndex": "0x27",
          "removed": false
        }
      ],
      "logsBloom": "0x00000000020000000000000000000000000000000000000400008000000000000000000000010000000000000000000000000000000000000000000000200000000000000000000000000000000000000000000000000000000000000000000000000000000000000000000000000000000002000000000004000000000000000000000000000000000000000000000000000000000000000000000000000000020000000000000000000000000000000100000000000000000000000000000000000000000000000000000000000000000000000000000000000000000000000010000040000000000000000000000000000000080000000000000000000000",
      "type": "0x2",
      "transactionHash": "0x65e94911af6ef4be5646fa54d3ca410291f7f1fa13e1e0c5d77e08ce7b273e7c",
      "transactionIndex": "0x14",
      "blockHash": "0x1c4beae7b752d5fd218a97a8f0a0226207f40acb27d32b293a8d23834d6ed350",
      "blockNumber": "0x129c913",
      "gasUsed": "0xb549",
      "effectiveGasPrice": "0x18813",
      "from": "0x4beb1413d5b15b147458242fc6e96bf8f6635f52",
      "to": "0x408ddbb94c985f8fec4d3bb8d4b05d69d0620283",
      "contractAddress": null,
      "l1BaseFeeScalar": "0x44d",
      "l1BlobBaseFee": "0x1",
      "l1BlobBaseFeeScalar": "0xa118b",
      "l1Fee": "0x2d4c1cd81",
      "l1GasPrice": "0x19b6b74fa",
      "l1GasUsed": "0x640"
    },
    {
      "status": "0x1",
      "cumulativeGasUsed": "0x1d13ad",
      "logs": [
        {
          "address": "0x408ddbb94c985f8fec4d3bb8d4b05d69d0620283",
          "topics": [
            "0xddf252ad1be2c89b69c2b068fc378daa952ba7f163c4a11628f55a4df523b3ef",
            "0x0000000000000000000000000000000000000000000000000000000000000000",
            "0x0000000000000000000000004beb1413d5b15b147458242fc6e96bf8f6635f52"
          ],
          "data": "0x00000000000000000000000000000000000000000000003635c9adc5dea00000",
          "blockHash": "0x1c4beae7b752d5fd218a97a8f0a0226207f40acb27d32b293a8d23834d6ed350",
          "blockNumber": "0x129c913",
          "transactionHash": "0x376066efb85f473e64d600b6f94962b78e6ba0ae698523915e9b9b186a0f320a",
          "transactionIndex": "0x15",
          "logIndex": "0x28",
          "removed": false
        }
      ],
      "logsBloom": "0x00000000000000000000000000000000000000000000000400008000000000000000000000010000000000000000000000000000000000000000000000000000000000000000000000000008000000000000000000000000000000000000000000000000020000000000000000000800000002000000000000000010000000000000000000000000000000000000000000000000000000000000000000000000000000000000000000000000000000000000000000000000000000000000000000000002000000000000000000000000000000000000000000000000000020000000000040000000000000000000000000000000080000000000000000000000",
      "type": "0x2",
      "transactionHash": "0x376066efb85f473e64d600b6f94962b78e6ba0ae698523915e9b9b186a0f320a",
      "transactionIndex": "0x15",
      "blockHash": "0x1c4beae7b752d5fd218a97a8f0a0226207f40acb27d32b293a8d23834d6ed350",
      "blockNumber": "0x129c913",
      "gasUsed": "0x1142d",
      "effectiveGasPrice": "0x18813",
      "from": "0x4beb1413d5b15b147458242fc6e96bf8f6635f52",
      "to": "0x408ddbb94c985f8fec4d3bb8d4b05d69d0620283",
      "contractAddress": null,
      "l1BaseFeeScalar": "0x44d",
      "l1BlobBaseFee": "0x1",
      "l1BlobBaseFeeScalar": "0xa118b",
      "l1Fee": "0x2d4c1cd81",
      "l1GasPrice": "0x19b6b74fa",
      "l1GasUsed": "0x640"
    },
    {
      "status": "0x1",
      "cumulativeGasUsed": "0x1e23d5",
      "logs": [
        {
          "address": "0x408ddbb94c985f8fec4d3bb8d4b05d69d0620283",
          "topics": [
            "0xddf252ad1be2c89b69c2b068fc378daa952ba7f163c4a11628f55a4df523b3ef",
            "0x0000000000000000000000004beb1413d5b15b147458242fc6e96bf8f6635f52",
            "0x000000000000000000000000303ae9878288cd970741c568377059b27f47735f"
          ],
          "data": "0x0000000000000000000000000000000000000000000000056bc75e2d63100000",
          "blockHash": "0x1c4beae7b752d5fd218a97a8f0a0226207f40acb27d32b293a8d23834d6ed350",
          "blockNumber": "0x129c913",
          "transactionHash": "0x6c5e8dbd73d428714cd0e7feda9efaa571c04da369b2b817ee1b6c6d0b206ec6",
          "transactionIndex": "0x16",
          "logIndex": "0x29",
          "removed": false
        },
        {
          "address": "0x303ae9878288cd970741c568377059b27f47735f",
          "topics": [
            "0xe60d25a032dac6a1f356e1bd17acc81450e3577accd69533e92a6e0eda85ffff",
            "0x000000000000000000000000408ddbb94c985f8fec4d3bb8d4b05d69d0620283",
            "0x0000000000000000000000004beb1413d5b15b147458242fc6e96bf8f6635f52"
          ],
          "data": "0x0000000000000000000000000000000000000000000000056bc75e2d631000000000000000000000000000000000000000000000000000000000000000066eee",
          "blockHash": "0x1c4beae7b752d5fd218a97a8f0a0226207f40acb27d32b293a8d23834d6ed350",
          "blockNumber": "0x129c913",
          "transactionHash": "0x6c5e8dbd73d428714cd0e7feda9efaa571c04da369b2b817ee1b6c6d0b206ec6",
          "transactionIndex": "0x16",
          "logIndex": "0x2a",
          "removed": false
        }
      ],
      "logsBloom": "0x08000000020000000000000000000000000000000000000400008000000000000000000000010000000000000000000000000000000000020000000000000000000000000000000000200008000000000000000000000010000000010000000010000000000000000000000000002000000002000000000004000010000000000000000000000000000000000000000000000000000000000000000000001000000000000000000000000000000000000100000000000000000000000000000000000002000000000000000000000400000000000000000000000000000000000000000040000000000000000000000000000000080000000000000000000000",
      "type": "0x2",
      "transactionHash": "0x6c5e8dbd73d428714cd0e7feda9efaa571c04da369b2b817ee1b6c6d0b206ec6",
      "transactionIndex": "0x16",
      "blockHash": "0x1c4beae7b752d5fd218a97a8f0a0226207f40acb27d32b293a8d23834d6ed350",
      "blockNumber": "0x129c913",
      "gasUsed": "0x11028",
      "effectiveGasPrice": "0x18813",
      "from": "0x4beb1413d5b15b147458242fc6e96bf8f6635f52",
      "to": "0x303ae9878288cd970741c568377059b27f47735f",
      "contractAddress": null,
      "l1BaseFeeScalar": "0x44d",
      "l1BlobBaseFee": "0x1",
      "l1BlobBaseFeeScalar": "0xa118b",
      "l1Fee": "0x2d4c1cd81",
      "l1GasPrice": "0x19b6b74fa",
      "l1GasUsed": "0x640"
    }
  ],
  "libraries": [],
  "pending": [],
  "returns": {},
  "timestamp": 1734799628,
  "chain": 84532,
  "commit": "0172616"
}