{
  "transactions": [
    {
      "hash": "0xe32c6d4366d87e7f3029e7801040c6ed027b22080d4845bf217e16b9fa492e98",
      "transactionType": "CALL",
      "contractName": null,
      "contractAddress": "0x303ae9878288cd970741c568377059b27f47735f",
      "function": "setDestChainId(bytes32,uint64,bool)",
      "arguments": [
        "0x83c84ad6614e8e6e31d2e7a8fbed660b90c06a79000000000000000000000000",
        "421614",
        "true"
      ],
      "transaction": {
        "from": "0x4beb1413d5b15b147458242fc6e96bf8f6635f52",
        "to": "0x303ae9878288cd970741c568377059b27f47735f",
        "gas": "0x112a6",
        "value": "0x0",
        "input": "0x32bb027b83c84ad6614e8e6e31d2e7a8fbed660b90c06a790000000000000000000000000000000000000000000000000000000000000000000000000000000000066eee0000000000000000000000000000000000000000000000000000000000000001",
        "nonce": "0x3f",
        "chainId": "0x14a34"
      },
      "additionalContracts": [],
      "isFixedGasLimit": false
    },
    {
      "hash": "0xffec2103ec6ed7357fc1952b2a688cefa6133cff96b7a808b6bcc7c9c54cb576",
      "transactionType": "CALL",
      "contractName": null,
      "contractAddress": "0x303ae9878288cd970741c568377059b27f47735f",
      "function": "deposit(bytes32,uint256,uint64)",
      "arguments": [
        "0x83c84ad6614e8e6e31d2e7a8fbed660b90c06a79000000000000000000000000",
        "50000000000000000000",
        "421614"
      ],
      "transaction": {
        "from": "0x4beb1413d5b15b147458242fc6e96bf8f6635f52",
        "to": "0x303ae9878288cd970741c568377059b27f47735f",
        "gas": "0x17bf5",
        "value": "0x0",
        "input": "0x1255899f83c84ad6614e8e6e31d2e7a8fbed660b90c06a79000000000000000000000000000000000000000000000000000000000000000000000002b5e3af16b18800000000000000000000000000000000000000000000000000000000000000066eee",
        "nonce": "0x40",
        "chainId": "0x14a34"
      },
      "additionalContracts": [],
      "isFixedGasLimit": false
    }
  ],
  "receipts": [
    {
      "status": "0x1",
      "cumulativeGasUsed": "0x1a0b72",
      "logs": [
        {
          "address": "0x303ae9878288cd970741c568377059b27f47735f",
          "topics": [
            "0x7a2774dd73cc5dde7c3a5657582429f8e7b0e26be0aafa09d572b2e4b5078190",
            "0x83c84ad6614e8e6e31d2e7a8fbed660b90c06a79000000000000000000000000",
            "0x0000000000000000000000000000000000000000000000000000000000066eee"
          ],
          "data": "0x0000000000000000000000000000000000000000000000000000000000000001",
          "blockHash": "0x6b6cdeb78bc8d7ff30ae58c13ffa45912b9fafec4bba1f7987ab6112ecf48b72",
          "blockNumber": "0x129bc97",
          "transactionHash": "0xe32c6d4366d87e7f3029e7801040c6ed027b22080d4845bf217e16b9fa492e98",
          "transactionIndex": "0x11",
          "logIndex": "0x25",
          "removed": false
        }
      ],
      "logsBloom": "0x00000000000000000000000000000000000000000000000000000000000000000000000000000000000000000000000000000000000000000000000000000000000000000020000000000000000000000000000000000110000000000000000010000000000000000000000000002000000080000000000000000000000000000008000000000000000000000000000040000000000000000000000000000000000000000000400000000000000000000000000000000000000000000001000000000000000000000000040000000000000000000000100000000000000000000000000000000000000000000000000000000000000000000000000000000000",
      "type": "0x2",
      "transactionHash": "0xe32c6d4366d87e7f3029e7801040c6ed027b22080d4845bf217e16b9fa492e98",
      "transactionIndex": "0x11",
      "blockHash": "0x6b6cdeb78bc8d7ff30ae58c13ffa45912b9fafec4bba1f7987ab6112ecf48b72",
      "blockNumber": "0x129bc97",
      "gasUsed": "0xc6d8",
      "effectiveGasPrice": "0x18810",
      "from": "0x4beb1413d5b15b147458242fc6e96bf8f6635f52",
      "to": "0x303ae9878288cd970741c568377059b27f47735f",
      "contractAddress": null,
      "l1BaseFeeScalar": "0x44d",
      "l1BlobBaseFee": "0x1",
      "l1BlobBaseFeeScalar": "0xa118b",
      "l1Fee": "0x2e191752c",
      "l1GasPrice": "0x1a2b1346b",
      "l1GasUsed": "0x640"
    },
    {
      "status": "0x1",
      "cumulativeGasUsed": "0x1d424d",
      "logs": [
        {
          "address": "0x83c84ad6614e8e6e31d2e7a8fbed660b90c06a79",
          "topics": [
            "0xddf252ad1be2c89b69c2b068fc378daa952ba7f163c4a11628f55a4df523b3ef",
            "0x0000000000000000000000004beb1413d5b15b147458242fc6e96bf8f6635f52",
            "0x000000000000000000000000303ae9878288cd970741c568377059b27f47735f"
          ],
          "data": "0x000000000000000000000000000000000000000000000002b5e3af16b1880000",
          "blockHash": "0x6b6cdeb78bc8d7ff30ae58c13ffa45912b9fafec4bba1f7987ab6112ecf48b72",
          "blockNumber": "0x129bc97",
          "transactionHash": "0xffec2103ec6ed7357fc1952b2a688cefa6133cff96b7a808b6bcc7c9c54cb576",
          "transactionIndex": "0x13",
          "logIndex": "0x29",
          "removed": false
        },
        {
          "address": "0x303ae9878288cd970741c568377059b27f47735f",
          "topics": [
            "0xe60d25a032dac6a1f356e1bd17acc81450e3577accd69533e92a6e0eda85ffff",
            "0x83c84ad6614e8e6e31d2e7a8fbed660b90c06a79000000000000000000000000",
            "0x0000000000000000000000004beb1413d5b15b147458242fc6e96bf8f6635f52"
          ],
          "data": "0x000000000000000000000000000000000000000000000002b5e3af16b18800000000000000000000000000000000000000000000000000000000000000066eee",
          "blockHash": "0x6b6cdeb78bc8d7ff30ae58c13ffa45912b9fafec4bba1f7987ab6112ecf48b72",
          "blockNumber": "0x129bc97",
          "transactionHash": "0xffec2103ec6ed7357fc1952b2a688cefa6133cff96b7a808b6bcc7c9c54cb576",
          "transactionIndex": "0x13",
          "logIndex": "0x2a",
          "removed": false
        }
      ],
      "logsBloom": "0x08000000020000000000000000000000000000000000000000008000000000000000000000010000000000000000000000000000000000000000000000000000000000000000000000200008000000000000000000000110000000010000000010000000000000000000000000002080000080000000000004000010000000000000000000000000000000000000000000000000000000000000000000000000000000000000000000000000000200000100000000000000000000000000000000000002000000000000040000000000000000000100000000000000000000000000000000000000000000000000000000000000080000000000000000000000",
      "type": "0x2",
      "transactionHash": "0xffec2103ec6ed7357fc1952b2a688cefa6133cff96b7a808b6bcc7c9c54cb576",
      "transactionIndex": "0x13",
      "blockHash": "0x6b6cdeb78bc8d7ff30ae58c13ffa45912b9fafec4bba1f7987ab6112ecf48b72",
      "blockNumber": "0x129bc97",
      "gasUsed": "0x11316",
      "effectiveGasPrice": "0x18810",
      "from": "0x4beb1413d5b15b147458242fc6e96bf8f6635f52",
      "to": "0x303ae9878288cd970741c568377059b27f47735f",
      "contractAddress": null,
      "l1BaseFeeScalar": "0x44d",
      "l1BlobBaseFee": "0x1",
      "l1BlobBaseFeeScalar": "0xa118b",
      "l1Fee": "0x2e191752c",
      "l1GasPrice": "0x1a2b1346b",
      "l1GasUsed": "0x640"
    }
  ],
  "libraries": [],
  "pending": [],
  "returns": {},
  "timestamp": 1734793235,
  "chain": 84532,
  "commit": "0172616"
}