{
  "transactions": [
    {
      "hash": "0xda7870f50135fab165e71a9612b6a9c73ff482f1706a2c0aef9ef12ac67ca0ea",
      "transactionType": "CALL",
      "contractName": null,
      "contractAddress": "0x83c84ad6614e8e6e31d2e7a8fbed660b90c06a79",
      "function": "approve(address,uint256)",
      "arguments": [
        "0x303AE9878288cd970741C568377059B27F47735F",
        "1000000000000000000000"
      ],
      "transaction": {
        "from": "0x4beb1413d5b15b147458242fc6e96bf8f6635f52",
        "to": "0x83c84ad6614e8e6e31d2e7a8fbed660b90c06a79",
        "gas": "0xfd66",
        "value": "0x0",
        "input": "0x095ea7b3000000000000000000000000303ae9878288cd970741c568377059b27f47735f00000000000000000000000000000000000000000000003635c9adc5dea00000",
        "nonce": "0x3e",
        "chainId": "0x14a34"
      },
      "additionalContracts": [],
      "isFixedGasLimit": false
    }
  ],
  "receipts": [
    {
      "status": "0x1",
      "cumulativeGasUsed": "0x14eed2",
      "logs": [
        {
          "address": "0x83c84ad6614e8e6e31d2e7a8fbed660b90c06a79",
          "topics": [
            "0x8c5be1e5ebec7d5bd14f71427d1e84f3dd0314c0f7b2291e5b200ac8c7c3b925",
            "0x0000000000000000000000004beb1413d5b15b147458242fc6e96bf8f6635f52",
            "0x000000000000000000000000303ae9878288cd970741c568377059b27f47735f"
          ],
          "data": "0x00000000000000000000000000000000000000000000003635c9adc5dea00000",
          "blockHash": "0x248fad0d8006c84122599e94dc60150a55322823769a81fb23c1538b10aa52f0",
          "blockNumber": "0x129bc1d",
          "transactionHash": "0xda7870f50135fab165e71a9612b6a9c73ff482f1706a2c0aef9ef12ac67ca0ea",
          "transactionIndex": "0xd",
          "logIndex": "0x21",
          "removed": false
        }
      ],
      "logsBloom": "0x00000000020000000000000000000000000000000000000000008000000000000000000000010000000000000000000000000000000000000000000000200000000000000000000000000000000000000000000000000000000000000000000000000000000000000000000000000080000000000000000004000000000000000000000000000000000000000000000000000000000000000000000000000000020000000000000000000000000200000100000000000000000000000000000000000000000000000000000000000000000000000100000000000000000000000010000000000000000000000000000000000000080000000000000000000000",
      "type": "0x2",
      "transactionHash": "0xda7870f50135fab165e71a9612b6a9c73ff482f1706a2c0aef9ef12ac67ca0ea",
      "transactionIndex": "0xd",
      "blockHash": "0x248fad0d8006c84122599e94dc60150a55322823769a81fb23c1538b10aa52f0",
      "blockNumber": "0x129bc1d",
      "gasUsed": "0xb775",
      "effectiveGasPrice": "0x187ff",
      "from": "0x4beb1413d5b15b147458242fc6e96bf8f6635f52",
      "to": "0x83c84ad6614e8e6e31d2e7a8fbed660b90c06a79",
      "contractAddress": null,
      "l1BaseFeeScalar": "0x44d",
      "l1BlobBaseFee": "0x1",
      "l1BlobBaseFeeScalar": "0xa118b",
      "l1Fee": "0x2b5586be7",
      "l1GasPrice": "0x18996a3e1",
      "l1GasUsed": "0x640"
    }
  ],
  "libraries": [],
  "pending": [],
  "returns": {},
  "timestamp": 1734792991,
  "chain": 84532,
  "commit": "0172616"
}